:1000000000308A0004280000840183131F30830518
:100010008316031787110C3003139900E230980000
:10002000D03083129800831603170908C03989005D
:1000300003131F129F1200300317880083128701D9
:100040008801890103139F0183169F01FF308600F9
:100050008801831288010608013A03194228033AED
:1000600003194528063A031948280C3A03194B2866
:10007000183A03194E28303A03195128603A0319E7
:100080005428572801308800572802308800572804
:10009000043088005728053088005728063088002B
:1000A00057280330880057280730880057282B2806
:0200B0006300EB
:04400E00F22FFF3F4F
:00000001FF
;PIC16F887
